HSPAR WESTERN CAPE             6001008999901600493001213735332VREDENDAL BUILD IT            05933120101058Short Delivery                Y59331          000001760441000002024507000000264066                                                                                                    0011
D2453396toilet seats                            00011    000000000000000000000005000000000115110001500000000057555000000066188000000                                                                                                    
D2781667CURTION TRACK                           00011    000000000000000000000010000000000199000001500000000199000000000228850000000                                                                                                    
D2836330CIRCAL SAW                              00011    000000000000000000000011000000000888000001500000000976800000001123320000000                                                                                                    
D2938033JIGSAW                                  00011    000000000000000000000002000000000328000001500000000065600000000075440000000                                                                                                    
D2715742TAP AND STAND                           00011    000000000000000000000015000000000071990001500000000107985000000124183000000                                                                                                    
D2781663LOCKSET RIM                             00011    000000000000000000000005000000000093840001500000000046920000000053958000000                                                                                                    
D2426002HOSEPIPE 1/2/20                         24261    000000000000000000000007000000000126860001500000000088802000000102122000000                                                                                                    
D2425917SHOVEL ROUND                            00011    000000000000000000000006000000000126750001500000000076050000000087457000000                                                                                                    
D2845575LEVEL TARPEDO                           00011    000000000000000000000001000000000184310001500000000018431000000021196000000                                                                                                    
D2427191CRAW BAR                                00011    000000000000000000000003000000000038760001500000000011628000000013372000000                                                                                                    
D2727012SINK AN WOODEN CABINET                  00011    000000000000000000000001000000001116700001500000000111670000000128421000000                                                                                                    
