HSPAR WESTERN CAPE             6001008999901600493001213735710GRABOUW BUILD IT              03023621020362Other / Faulty                Y58078          000000038201000000043932000000005731Faulty stock returned to supplier.                                                                  0005
D2975531Lamp LED Rechargeable 6W B22 BI         00011    000000000000000000000002000000000040200001500000000008040000000009246000000                                                                                                    
D2965640LOCKSET MORTICE 2L FANCY L/S I07 BI     00011    000000000000000000000001000000000096200001500000000009620000000011063000000                                                                                                    
D2425161LOCKSET RIM BI                          00011    000000000000000000000001000000000093840001500000000009384000000010792000000                                                                                                    
D2450112SHEARS BYPASS PRUNING                   00011    000000000000000000000001000000000062670001500000000006267000000007207000000                                                                                                    
D2806993LED FLOODLIGHT 10W BI                   00011    000000000000000000000001000000000048900001500000000004890000000005624000000                                                                                                    
