HSPAR WESTERN CAPE             6001008999901600493001213735933KEETMANSHOOP BUILD IT         01164021020156Damaged Stock Ex Truck        Y123            000000058030000000058030000000000000STOCK DAMAGED DUE TO PLUMBING FLUX LEAKING                                                          0010
D2491155TAPE PVC INSULATION BLACK               00011    000000000000000000000004000000000009830000000000000003932000000003932000000DAMAGED                                                                                             
D2548391HEATSHRINK BLACK                        00011    000000000000000000000001000000000016060000000000000001606000000001606000000DAMAGED                                                                                             
D2532398SURFACE BOX 1X16A SOCKET OUTLET         00011    000000000000000000000002000000000040560000000000000008112000000008112000000DAMAGED                                                                                             
D2532404SOCKET OUTLET 2X16A 4X4                 00011    000000000000000000000002000000000073650000000000000014730000000014730000000DAMAGED                                                                                             
D2732686STOVE ISOLATOR 45A 2P 4X4               00011    000000000000000000000001000000000078860000000000000007886000000007886000000DAMAGED                                                                                             
D2546863GALV. STEEL SADDLE 20MM 10'S            00011    000000000000000000000003000000000008000000000000000002400000000002400000000DAMAGED                                                                                             
D2546804PVC COUPLING 20MM 10'S                  00011    000000000000000000000014000000000005010000000000000007014000000007014000000DAMAGED                                                                                             
D2546792PVC LOCKING ADAPTOR 20MM 10'S           00011    000000000000000000000003000000000005710000000000000001713000000001713000000DAMAGED                                                                                             
D2546832INSPECTION ELBOW 20MM 5'S               00011    000000000000000000000005000000000015050000000000000007525000000007525000000DAMAGED                                                                                             
D2546812CONDUIT BOX 2WAY 20MM 5'S               00011    000000000000000000000002000000000015560000000000000003112000000003112000000DAMAGED                                                                                             
