HSPAR EASTERN CAPE             6001008999918600493001213745048GARIEP BUILD IT               06561420111458Short Delivery                Y1              000000101345000000116547000000015202                                                                                                    0003
D2975531LED A68 GW CHARGE B22 D/L               00011    000000000200000000000000000000000040200001500000000080400000000092460000000                                                                                                    
D2425203BARREL BOLT L/D BL/J 125MM              00011    000000000050000000000000000000000010410001500000000005205000000005986000000                                                                                                    
D2779625LED 5 W GU10 DIM COOL WHT 15            00011    000000000050000000000000000000000031480001500000000015740000000018101000000                                                                                                    
