HSPAR WESTERN CAPE             6001008999901600493001213735710GRABOUW BUILD IT              14129920121462Other / Faulty                Y58074          000000097519000000112147000000014628Faulty stock returned to supplier.                                                                  0007
D2425911LOCKSET 5L CP BI                        00011    000000000000000000000001000000000038990001500000000003899000000004484000000                                                                                                    
D2425023LOCKBODY 3L CP                          00011    000000000000000000000001000000000051270001500000000005127000000005896000000                                                                                                    
D2446401LOCKSET 3L CP                           00011    000000000000000000000001000000000082480001500000000008248000000009485000000                                                                                                    
D2496794SINK MIXER SNG HOLE                     00011    000000000000000000000001000000000330270001500000000033027000000037981000000                                                                                                    
D2965633LOCKSET MORTICE 2L FANCY 6/S 104 BI     00011    000000000000000000000001000000000096190001500000000009619000000011062000000                                                                                                    
D2496719MIXER CONCEAL NTOMBI                    00011    000000000000000000000001000000000279790001500000000027979000000032176000000                                                                                                    
D2965623LOCKSET MORTICE 2L FANCY L/S BI         00011    000000000000000000000001000000000096200001500000000009620000000011063000000                                                                                                    
