HSPAR SOUTH RAND               6001008999932600493001213721997BUILD IT DAKOTA REITZ         03599520071562Other / Faulty                Y35995          000000198716000000228523000000029807CREDIT NOTE REQUIRED.                                                                               0004
D2808989HAMMER DRILL KEYLESS CHUCK 710W VSR 13mm00011    000000000000000000000001000000000469000001500000000046900000000053935000000CREDIT NOTE REQUIRED.                                                                               
D2969159PB 3 PANEL GAS HEATER BLK               00011    000000000000000000000001000000000745000001500000000074500000000085675000000CREDIT NOTE REQUIRED.                                                                               
D2969153PB 3 PANEL GAS HEATER RED               00011    000000000000000000000001000000000745000001500000000074500000000085675000000CREDIT NOTE REQUIRED.                                                                               
D2779609BI LED 10W R80 E27 C/W                  00011    000000000000000000000001000000000028160001500000000002816000000003238000000CREDIT NOTE REQUIRED.                                                                               
