HSPAR EASTERN CAPE             6001008999918600493001213745048GARIEP BUILD IT               05729820073058Short Delivery                Y1              000000279866000000321846000000041980                                                                                                    0007
D254839836W 4FT FLU LAMP                        00011    000000000250000000000000000000000010840001500000000027100000000031165000000                                                                                                    
D254840058W 5FT FLU LAMP                        00011    000000000250000000000000000000000015560001500000000038900000000044735000000                                                                                                    
D2775333POLYCOP 15X50M                          00011    000000000040000000000000000000000127210001500000000050884000000058517000000                                                                                                    
D2859264POLYCOP PIPE 22X30M                     00011    000000000010000000000000000000000146180001500000000014618000000016811000000                                                                                                    
D2424056ROOFING NAIL 90MM 100'S                 00011    000000000200000000000000000000000028900001500000000057800000000066470000000                                                                                                    
D2977485PROBIOTIC HAND CLEANER 250 1'S          00011    000000000120000000000000000000000032440001500000000038928000000044767000000                                                                                                    
D2977487PROBIOTIC HAND CLEANER 500'S            00011    000000000120000000000000000000000043030001500000000051636000000059381000000                                                                                                    
