HSPAR SOUTH RAND               6001008999932600493001213722267BUILD IT KLERKSDORP           05712620091058Short Delivery                Y48974/518603   000000048982000000056329000000007347PLEASE PASS CREDIT FOR SHORT DELIVERY ON THE FOLLOWING: CRN 48974 & INV 518603                      0003
D27060882.5M WASHING MACHINE DRAIN HOSE         00011    000000000000000000000004000000000041290001500000000016516000000018993000000SHORT DELIVERY, PLEASE PASS CREDIT                                                                  
D2520020BOWSAW 600MM                            00011    000000000000000000000004000000000069750001500000000027900000000032085000000SHORT DELIVERY, PLEASE PASS CREDIT                                                                  
D2450112SHEARS BYPASS PRUNING                   00011    000000000000000000000001000000000045660001500000000004566000000005251000000SHORT DELIVERY, PLEASE PASS CREDIT                                                                  
