HSPAR WESTERN CAPE             6001008999901600493001213735933KEETMANSHOOP BUILD IT         01163721012256Damaged Stock Ex Truck        Y123            000000252640000000252640000000000000STOCK DAMAGED DUE TO PLUMBING FLUX LEAKING                                                          0012
D2479145SHOWER ROSE ABS CHROME PRESTEX          00011    000000000000000000000001000000000040690000000000000004069000000004069000000DAMAGED                                                                                             
D2425172BARREL BOLT NECKED CHROME PLATED        00011    000000000000000000000001000000000030280000000000000003028000000003028000000DAMAGED                                                                                             
D2532203SWITCH 1L 1W 2X4                        00011    000000000000000000000001000000000015350000000000000001535000000001535000000DAMAGED                                                                                             
D2842058TOILET PAPER HOLDER IDEAL               00011    000000000000000000000001000000000065150000000000000006515000000006515000000DAMAGED                                                                                             
D2781226SWITCH INDUSTRIAL SM 1L 1W              00011    000000000000000000000004000000000049880000000000000019952000000019952000000DAMAGED                                                                                             
D2801382PLUMBING FLUX 200G                      00011    000000000000000000000014000000000017310000000000000024234000000024234000000DAMAGED                                                                                             
D2801380PLUMBING FLUX 100G                      00011    000000000000000000000008000000000015440000000000000012352000000012352000000DAMAGED                                                                                             
D2801411SOLDER ACID COR 2.5MM X 250G            00011    000000000000000000000001000000000048920000000000000004892000000004892000000DAMAGED                                                                                             
D2801376SOLDER PLUMBING 2MM X 250G              00011    000000000000000000000007000000000111650000000000000078155000000078155000000DAMAGED                                                                                             
D2801378SOLDER PLUMBING 2MM X 500G              00011    000000000000000000000004000000000236020000000000000094408000000094408000000DAMAGED                                                                                             
D2807652DOUBLE JANUS COUPLER BLACK              00011    000000000000000000000001000000000017400000000000000001740000000001740000000DAMAGED                                                                                             
D2807650DOUBLE JANUS COUPLER WHITE              00011    000000000000000000000001000000000017600000000000000001760000000001760000000DAMAGED                                                                                             
