HSPAR WESTERN CAPE             6001008999901600493001213736129CITY BUILD IT                 03894421011259Saleable Stock Returned       Y38944          000000321866000000370147000000048281CLAIM NUMBER:38944
INV:                                                                             0005
D2706087DRAIN HOSE MACHINE 2.5M                 00011    000000000000000000000001000000000045880001500000000004588000000005276000000FAULTY                                                                                              
D2807677MULTIPLUG 10WAY WITH SURGE              00011    000000000000000000000001000000000120770001500000000012077000000013889000000FAULTY                                                                                              
D2427801TYROLEAN FLICKING MACHINE               00011    000000000000000000000001000000000141170001500000000014117000000016235000000FAULTY                                                                                              
D2425161LOCKSET - RIM                           00011    000000000000000000000001000000000093840001500000000009384000000010792000000FAULTY                                                                                              
D2822637WOOD CHISEL 10MM                        00011    000000000000000000000090000000000031300001500000000281700000000323955000000OVER SUPPLIED                                                                                       
