HSPAR EASTERN CAPE             6001008999918600493001213745028ALIWAL BUILD IT               05969320060262Other / Faulty                Y11282          000000049751000000057214000000007463                                                                                                    0005
D2425451RAT TRAP METAL                          00011    000000000000000000000001000000000022430001500000000002243000000002579000000                                                                                                    
D2425876LOCKSET CYL VICT 8 BP                   00011    000000000000000000000001000000000104900001500000000010490000000012064000000                                                                                                    
D2496717SINK MIXER NTOMBI SINGLE HOLE           00011    000000000000000000000001000000000223300001500000000022330000000025680000000                                                                                                    
D2425834LOCKSET CYL FANCY                       00011    000000000000000000000001000000000130000001500000000013000000000014950000000                                                                                                    
D2612937SWITCH LESCO 1L STEEL                   00011    000000000000000000000001000000000016880001500000000001688000000001941000000                                                                                                    
