HSPAR WESTERN CAPE             6001008999901600493001213736129CITY BUILD IT                 03894220112862Other / Faulty                Y38942          000000172834000000198760000000025926PLEASE COLLECT STOCK INSTORE.
PASS CREDIT.                                                          0005
D2748896E/REEL 20 16A                           00011    000000000010000000000000000000000333980001500000000033398000000038408000000FAULTY                                                                                              
D2425911S/L MORTICE LOCKSET                     00011    000000000010000000000000000000000036850001500000000003685000000004238000000UNCUT KEYS. FAULTY                                                                                  
D2496776BATH MIXER NANDI                        00011    000000000010000000000000000000000418240001500000000041824000000048098000000FAULTY                                                                                              
D2425023LOCKSET BODY 3L                         00011    000000000010000000000000000000000051270001500000000005127000000005896000000FAULTY                                                                                              
D2836330B/D CIRCULAR SAW 1250W                  00011    000000000010000000000000000000000888000001500000000088800000000102120000000                                                                                                    
