HSPAR EASTERN CAPE             6001008999918600493001213745028ALIWAL BUILD IT               06597521011458Short Delivery                Y65975          000000058248000000066986000000008738                                                                                                    0004
D2968523OVAL CYLINDER                           00011    000000000000000000000001000000000079390001500000000007939000000009130000000                                                                                                    
D2968481AL FLASH HINGE                          00011    000000000000000000000001000000000048310001500000000004831000000005556000000                                                                                                    
D2968559DOUBLE ROBE HOOK                        00011    000000000000000000000001000000000027130001500000000002713000000003120000000                                                                                                    
D2781264CLR 2L500R DIM                          00011    000000000000000000000001000000000427650001500000000042765000000049180000000                                                                                                    
