HSPAR WESTERN CAPE             6001008999901600493001213735710GRABOUW BUILD IT              15011121011562Other / Faulty                Y58075          000000040123000000046141000000006018Goods returned as they were all faulty.                                                             0005
D2965623LOCKSET MORTICE 2L FANCY L/S I01 BI     00011    000000000000000000000001000000000096200001500000000009620000000011063000000                                                                                                    
D2450112SHEAR BYPASS PRUNING                    00011    000000000000000000000001000000000062670001500000000006267000000007207000000                                                                                                    
D2496811TAP BIB NANDI BI                        00011    000000000000000000000001000000000160550001500000000016055000000018463000000                                                                                                    
D2479136SHOWER ROSE CHROME 5 FUNCTION BI        00011    000000000000000000000001000000000067390001500000000006739000000007750000000                                                                                                    
D2779639LAMP LED A60 5W B22                     00011    000000000000000000000001000000000014420001500000000001442000000001658000000                                                                                                    
