HSPAR EASTERN CAPE             6001008999918600493001213745085KOWIE BUILD IT                06019320093062Other / Faulty                YRICHARD        000000090916000000104554000000013638                                                                                                    0012
D2975534LAMP LED A68 6W RECHARGEBLE             00000    000000000010000000000000000000000039900001500000000003990000000004589000000                                                                                                    
D2958173LAMP LED A60 6W                         00000    000000000030000000000000000000000026010001500000000007803000000008973000000                                                                                                    
D2806990LAMP LED CEILING 20W                    00000    000000000020000000000000000000000067400001500000000013480000000015502000000                                                                                                    
D2548400FLOODLAMP 58W 5FT                       00000    000000000020000000000000000000000015560001500000000003112000000003579000000                                                                                                    
D2807599ADAPTOR TWIN                            00000    000000000010000000000000000000000010420001500000000001042000000001198000000                                                                                                    
D2561360LAMP HOLDER B22                         00000    000000000010000000000000000000000008780001500000000000878000000001010000000                                                                                                    
D2706096THREADLESS HOSE LAMP                    00000    000000000010000000000000000000000052040001500000000005204000000005985000000                                                                                                    
D2794436WASH TAP ADAPTOR                        00000    000000000040000000000000000000000019430001500000000007772000000008938000000                                                                                                    
D2794411HOSE CONNECTOR                          00000    000000000010000000000000000000000007590001500000000000759000000000873000000                                                                                                    
D2794547METAL IMPULSE SPRINKLER                 00000    000000000010000000000000000000000069080001500000000006908000000007944000000                                                                                                    
D2450123SHEARS HEDGE                            00000    000000000010000000000000000000000097680001500000000009768000000011233000000                                                                                                    
D2960060PLATE SOLID 145MM                       00000    000000000020000000000000000000000151000001500000000030200000000034730000000                                                                                                    
