HSPAR SOUTH RAND               6001008999932600493001213721998BUILD IT DAKOTA SENEKAL       00291520121862Other / Faulty                Y63462          000000105449000000121266000000015817FAULTY STOCK RETURNED TO SUPPLIER                                                                   0006
D2422764ANCHOR NAIL 8X100                       00105L   000000000000000000000010000000000012360001500000000012360000000014214000000INCOMPLETE                                                                                          
D2650766NAIL IN WHITE RIMMED 8X100MM            00101    000000000000000000000010000000000026320001500000000026320000000030268000000INCOMPLETE                                                                                          
D2610799WELLGLASS COMPLETE                      00011    000000000000000000000001000000000024400001500000000002440000000002806000000INCOMPLETE                                                                                          
D2427401RUBBER MELLET WHT 500G                  00011    000000000000000000000001000000000085340001500000000008534000000009814000000FAULTY                                                                                              
D2425032LOCKSET ENTRANCE ANT COPPER             00011    000000000060000000000000000000000086120001500000000051672000000059423000000FAULTY                                                                                              
D25322332X16A SOKET OUTLET 4X4                  00011    000000000010000000000000000000000041230001500000000004123000000004741000000FAULTY                                                                                              
