HSPAR SOUTH RAND               6001008999932600493001213721997BUILD IT DAKOTA REITZ         03599920121762Other / Faulty                Y35999          000000062958000000072402000000009444CREDIT NOTE REQUIRED.                                                                               0003
D27060822M WASH/MACH INLET HOSE 3/4"            00012m   000000000000000000000001000000000055200001500000000005520000000006348000000CREDIT NOTE REQUIRED.                                                                               
D2446401L/SET MORTICE 3 LEVER CP                00011    000000000000000000000001000000000082480001500000000008248000000009485000000CREDIT NOTE REQUIRED.                                                                               
D2425892L/SET MORTICE GEORGIAN 6" SP            00011    000000000000000000000005000000000098380001500000000049190000000056569000000CREDIT NOTE REQUIRED.                                                                               
