HSPAR EASTERN CAPE             6001008999918600493001213745048GARIEP BUILD IT               06560220082958Short Delivery                Y1              000000102343000000117694000000015351                                                                                                    0003
D2426192COUPL MI 15X1/2 COMP                    00011    000000000090000000000000000000000075210001500000000067689000000077842000000                                                                                                    
D2540731WHT DIN 8WAY SURF                       00011    000000000020000000000000000000000050270001500000000010054000000011562000000                                                                                                    
D2970453BUILD IT PAINTERS PACK                  00011    000000000040000000000000000000000061500001500000000024600000000028290000000                                                                                                    
