HSPAR SOUTH RAND               6001008999932600493001213721996BUILD IT DAKOTA HARRISMITH    05799820070862Other / Faulty                Y57998          000000112611000000129502000000016891Picked up by rep.  C/note required.                                                                 0004
D2496823Tap handle modern Nandi                 00011    000000000000000000000001000000000015420001500000000001542000000001773000000Picked up by rep.  C/note required.                                                                 
D2424835Diamond blade 230mm                     00011    000000000000000000000001000000000089690001500000000008969000000010314000000Picked up by rep.  C/note required.                                                                 
D2969153Gas heater delta red                    00011    000000000000000000000001000000000745000001500000000074500000000085675000000Picked up by rep.  C/note required.                                                                 
D2772735B&D angle grinder                       00011    000000000000000000000001000000000276000001500000000027600000000031740000000Picked up by rep.  C/note required.                                                                 
