HSPAR SOUTH RAND               6001008999932600493001213722267BUILD IT KLERKSDORP           01039120071657Picking Errors                Y57126          000000048982000000056329000000007347SHORT DELIVERY, PLEASE PASS CREDIT                                                                  0003
D2450112SHEARS BYPASS RUNNING                   00011    000000000000000000000001000000000045660001500000000004566000000005251000000SHORT DELIVERY  PLEASE PASS CREDIT                                                                  
D27060872.5M DRAIN HOSE                         00012.5M 000000000000000000000004000000000041290001500000000016516000000018993000000SHORT DELIVERY  PLEASE PASS CREDIT                                                                  
D2520020130WSAW 600MM                           0001600MM000000000000000000000004000000000069750001500000000027900000000032085000000SHORT DELIVERY  PLEASE PASS CREDIT                                                                  
