HSPAR EASTERN CAPE             6001008999918600493001213745028ALIWAL BUILD IT               06595120090558Short Delivery                Y65951          000000161696000000185950000000024254                                                                                                    0003
D285186212V C/LESS DRILL/DRV KIT                00011    000000000000000000000001000000000471560001500000000047156000000054229000000SHORT DELIVERY                                                                                      
D2475776TOILET SEAT CONTRACTOR  BOX OF 20       00011    000000000010000000000000000000001083370001500000000108337000000124588000000                                                                                                    
D2743466VACUUM BREAKER 22 CXC RED               00011    000000000000000000000001000000000062030001500000000006203000000007133000000                                                                                                    
