HSPAR WESTERN CAPE             6001008999901600493001213735933KEETMANSHOOP BUILD IT         01159320120456Damaged Stock Ex Truck        Y123            000000152441000000152441000000000000PRODUCTS DAMAGED DUE TO OPEN PLUMBING FLUX CONTAINERS IN BOX.                                       0008
D2801382PLUMBING FLUX                           00011    000000000150000000000000000000000017310000000000000025965000000025965000000RECEIVED OPEN                                                                                       
D2459226EXTENSION CORD WHITE 20M 16A            00011    000000000000000000000002000000000255370000000000000051074000000051074000000DAMAGED DUE TO PLUMBLING FLUX                                                                       
D2781181STOVE ISO CLASSIC 30A 4X2V              00011    000000000000000000000004000000000094800000000000000037920000000037920000000DAMAGED DUE TO PLUMBING FLUX                                                                        
D2532578SWITCH 1 LEVER 1 WAY 2X4 C/W            00011    000000000000000000000004000000000026700000000000000010680000000010680000000DAMAGED DUE TO PLUMBING FLUX                                                                        
D2532588SWITCH 3 LEVER 1 WAY 2X4 C/W            00011    000000000000000000000002000000000030710000000000000006142000000006142000000DAMAGED DUE TO PLUMBING FLUX                                                                        
D2532583SWITCH 2 LEVER 1 WAY 2X4                00011    000000000000000000000001000000000030420000000000000003042000000003042000000DAMAGED DUE TO PLUMBING FLUX                                                                        
D2781169SWITCH CLASSIC STEEL 1L 2W              00011    000000000000000000000004000000000035920000000000000014368000000014368000000DAMAGED DUE TO PLUMBING FLUX                                                                        
D2781205COVER PLATE CLASSIC BLANK 4X2           00011    000000000000000000000002000000000016250000000000000003250000000003250000000DAMAGED DUE TO PLUMBING FLUX                                                                        
