HSPAR NORTH RAND               6001008999925600493001213731028NORTHAM BUILD IT              04799820081262Other / Faulty                Y47989          000000086398000000099358000000012960                                                                                                    0003
D2479153SHOWER ARM                              00011    000000000000000000000002000000000094160001500000000018832000000021657000000                                                                                                    
D2479150SHOWER ROSE                             00011    000000000020000000000000000000000059900001500000000011980000000013777000000                                                                                                    
D2496719TAP NTOMBI                              00011    000000000020000000000000000000000277930001500000000055586000000063924000000                                                                                                    
