HSPAR SOUTH RAND               6001008999932600493001213721998BUILD IT DAKOTA SENEKAL       00249420101362Other / Faulty                Y44492          000000147556000000169690000000022134FAULTY STOCK RETURNED TO SUPPLIER                                                                   0006
D2841370STANLEY A/GRINDERS 115MM 710W           0001710W 000000000020000000000000000000000490900001500000000098180000000112907000000FAULTY STOCK                                                                                        
D2772735B&D A/GRINDER 710W 115MM                0001115MM000000000010000000000000000000000276000001500000000027600000000031740000000FAULTY STOCK                                                                                        
D2779555BI LED 8W A60 E27 DAYLIGHT              00051    000000000010000000000000000000000016560001500000000001656000000001904000000                                                                                                    
D2425149KEYHOLE BLOCKER                         00011    000000000010000000000000000000000017510001500000000001751000000002014000000FAULTY                                                                                              
D2424884PADLOCK BRASS INSURANCE 70MM            000170MM 000000000010000000000000000000000148190001500000000014819000000017042000000FAULTY STOCK RETURNED TO SUPPLIER                                                                   
D2425911LOCK SET STD 5L CP                      00011    000000000010000000000000000000000035500001500000000003550000000004083000000FAULTY STOCK RETURNED TO SUPPLIER                                                                   
