HSPAR EASTERN CAPE             6001008999918600493001213745085KOWIE BUILD IT                06019120082662Other / Faulty                YRICHARD        000000012763000000014677000000001914                                                                                                    0004
D2427772TROWEL BRICK PLASTIC HANDLE             00000    000000000010000000000000000000000045640001500000000004564000000005249000000                                                                                                    
D2427748TROWEL POINTING WOODEN HANDLE           00000    000000000010000000000000000000000024160001500000000002416000000002778000000                                                                                                    
D2427275FILE STEEL (SQUARE)                     00000    000000000010000000000000000000000024410001500000000002441000000002807000000                                                                                                    
D2427272FILE STEEL (TRIANGULAR)                 00000    000000000010000000000000000000000033420001500000000003342000000003843000000                                                                                                    
