HSPAR NORTH RAND               6001008999925600493001213730971BUILD KWIK BUILD IT           06075820082658Short Delivery                NCOURIER        000000013569000000015604000000002035PLEASE PROVIDE CREDIT FOR CLAIM60758                                                                0003
D2947129UG PL 110MM 45 BEND 1'S                 00011    000000000000000000000001000000000022380001500000000002238000000002574000000                                                                                                    
D2859166SV 50MM 87.5                            00011    000000000000000000000004000000000006140001500000000002456000000002824000000                                                                                                    
D2859146SV SINGLE SOCKET 50MM                   00011    000000000000000000000025000000000003550001500000000008875000000010206000000                                                                                                    
