HSPAR EASTERN CAPE             6001008999918600493001213745048GARIEP BUILD IT               05730020082562Other / Faulty                Y1              000000084026000000096630000000012604                                                                                                    0007
D2427796ANGLE GRINDER 115MM 710W                00011    000000000030000000000000000000000227500001500000000068250000000078488000000                                                                                                    
D2779555HAWK PLASTER 280MM                      00011    000000000010000000000000000000000014060001500000000001406000000001617000000                                                                                                    
D2779556GLOBE LED F/LIGHT                       00011    000000000010000000000000000000000013960001500000000001396000000001605000000                                                                                                    
D2532207SWITCH 2L 2X4                           00011    000000000010000000000000000000000018230001500000000001823000000002096000000                                                                                                    
D2532579SWITCH 1WAY 2X4 COVER                   00011    000000000010000000000000000000000020650001500000000002065000000002375000000                                                                                                    
D2612974SOCKET 2X16A 4X4 STEEL                  00011    000000000010000000000000000000000055360001500000000005536000000006366000000                                                                                                    
D2425911LOCKSET CP STD                          00011    000000000010000000000000000000000035500001500000000003550000000004083000000                                                                                                    
