HSPAR SOUTH RAND               6001008999932600493001213722267BUILD IT URANIAVILLE          01050120120862Other / Faulty                Y50880          000000112498000000129372000000016874FAULTY, PLEASE PASS CREDIT                                                                          0003
D2440427TRAP WASHTROUGH DOUBLE WHITE            000140X60000000000000000000000001000000000073560001500000000007356000000008459000000FAULTY, PLEASE PASS CREDIT                                                                          
D2840118BLACK & DECKER DRILL DRIVER CORDLESS    000118V  000000000000000000000001000000000679000001500000000067900000000078085000000FAULTY, PLEASE PASS CREDIT                                                                          
D2516763TOWEL RAIL DOUBLE                       0001700MM000000000000000000000002000000000186210001500000000037242000000042828000000FAULTY, PLEASE PASS CREDIT                                                                          
