HSPAR EASTERN CAPE             6001008999918600493001213745048GARIEP BUILD IT               06560420093062Other / Faulty                Y1              000000082913000000095349000000012436                                                                                                    0007
D2441352SINK DROP IN 1200X480                   00011    000000000010000000000000000000000612650001500000000061265000000070455000000                                                                                                    
D279441419MM HOSE PIPE CONNECTOR                00011    000000000050000000000000000000000008020001500000000004010000000004611000000                                                                                                    
D2681542TAP GARDEN PRO CLOSE                    00011    000000000010000000000000000000000023830001500000000002383000000002740000000                                                                                                    
D2791333CURTAIN TRACK BRACKET DBL               00011    000000000010000000000000000000000005220001500000000000522000000000600000000                                                                                                    
D2610799WATER TIGHT FITTING                     00011    000000000010000000000000000000000023540001500000000002354000000002707000000                                                                                                    
D2427014HOSE FXF BRS 15X1800                    00011    000000000010000000000000000000000065130001500000000006513000000007490000000                                                                                                    
D2968513GATE LOCK                               00011    000000000010000000000000000000000058660001500000000005866000000006746000000                                                                                                    
