HSPAR SOUTH RAND               6001008999932600493001213722267BUILD IT URANIAVILLE          01050020120862Other / Faulty                Y50879          000000035256000000040544000000005288FAULTY, PLEASE PASS CREDIT                                                                          0007
D2464645INLET VALVE TOPAZ-S/INLET               00011    000000000000000000000001000000000029910001500000000002991000000003440000000FAULTY, PLEASE PASS CREDIT                                                                          
D2975531LED RECHARGEABLE A68 B22                00011    000000000010000000000000000000000039160001500000000003916000000004503000000FAULTY, PLEASE PASS CREDIT                                                                          
D2520719PADLOCK GREY STANDARD                   000250MM 000000000020000000000000000000000017340001500000000003468000000003988000000FAULTY, PLEASE PASS CREDIT                                                                          
D2561390E27 METAL LAMP HOLDER BATTEN MOUNT      00011    000000000000000000000001000000000020290001500000000002029000000002333000000FAULTY, PLEASE PASS CREDIT                                                                          
D2450129SHEARS BYPASS PRUNING HEAVY DUTY        00011    000000000000000000000001000000000099770001500000000009977000000011474000000FAULTY, PLEASE PASS CREDIT                                                                          
D253239545A 3P STOVE ISOLATOR 4X4               00011    000000000000000000000001000000000056750001500000000005675000000006526000000FAULTY, PLEASE PASS CREDIT                                                                          
D2427390LEVEL SPIRIT ALUMINIUM                  0001600MM000000000000000000000001000000000072000001500000000007200000000008280000000FAULTY, PLEASE PASS CREDIT                                                                          
