HSPAR WESTERN CAPE             6001008999901600493001213735710GRABOUW BUILD IT              10096720091062Other / Faulty                Y58072          000000015108000000017375000000002267Faulty stock returned with rep                                                                      0003
D2427071Valve Angle 1/2x1/2 BI CP               00011    000000000000000000000002000000000034150001500000000006830000000007855000000                                                                                                    
D2975531Lamp LED Rechargeable 6W B22 BI         00011    000000000000000000000001000000000039900001500000000003990000000004589000000                                                                                                    
D2975534Lamp LED Rechargeable 6W E27 BI         00011    000000000000000000000001000000000042880001500000000004288000000004931000000                                                                                                    
