HSPAR SOUTH RAND               6001008999932600493001213721998BUILD IT DAKOTA SENEKAL       00249920101362Other / Faulty                Y44493          000000138472000000159243000000020771FAULTY STOCK RETURNED TO SUPPLIER FOR CREDIT                                                        0005
D2496811TAP BIB HOSE NANDI                      00011    000000000010000000000000000000000108970001500000000010897000000012532000000RETURNED TO SUPPLIER FOR CREDIT                                                                     
D2440425TRAP COMB WHITE 40MM X 300MM            00011    000000000010000000000000000000000057830001500000000005783000000006650000000RETURNED TO SUPPLIER FOR CREDIT                                                                     
D2427417MULTIMETER DIGITAL MINI                 00011    000000000010000000000000000000000073970001500000000007397000000008507000000RETURNED TO SUPPLIER FOR CREDIT                                                                     
D2841392STANLEY BELT SANDER 720W                0001720W 000000000010000000000000000000001009000001500000000100900000000116035000000RETURNED TO SUPPLIER FOR CREDIT                                                                     
D2424879PADLOCK BRASS 60MM                      000160MM 000000000010000000000000000000000134950001500000000013495000000015519000000RETURNED TO SUPPLIER FOR CREDIT                                                                     
