HSPAR WESTERN CAPE             6001008999901600493001213735710GRABOUW BUILD IT              20084120082062Other / Faulty                Y58071          000000060571000000069656000000009085Faulty stock returned to supplier                                                                   0003
D2783941Shower Electric Bella Instant           00011    000000000000000000000001000000000539000001500000000053900000000061985000000                                                                                                    
D2975534Lamp LED Rechargeable 6W E27 BI         00011    000000000000000000000001000000000042880001500000000004288000000004931000000                                                                                                    
D2681542Tap Garden 15mm /3/4"                   00011    000000000000000000000001000000000023830001500000000002383000000002740000000                                                                                                    
