HSPAR LOWVELD                  6001008090011600493001213762087MATSULU BUILD IT              09115120092162Other / Faulty                Y91151          000000179715000000206673000000026958CLAIM 91151 AS PER MESSAGE TO TRYS DC LOWVELD 21.09.2020                                            0014
D2876393BUILD IT LED T8 2FT DOUBLE              00011    000000000030000000000000000000000008140001500000000002442000000002808000000                                                                                                    
D2779582GLOBE TUBE LED T8 9W DAYLIGHT           00011    000000000010000000000000000000000036480001500000000003648000000004195000000                                                                                                    
D2467522BUILD IT SILICONE GREY                  00011    000000000020000000000000000000000010850001500000000002170000000002496000000                                                                                                    
D2561575METAL LAMP HOLDER                       00011    000000000010000000000000000000000021590001500000000002159000000002483000000                                                                                                    
D2562002BASIN BANTAM WHITE                      00011    000000000040000000000000000000000146420001500000000058568000000067353000000                                                                                                    
D2841568LO LEV TOILET SET                       00011    000000000010000000000000000000000469000001500000000046900000000053935000000                                                                                                    
D2477910TAPE MEASURE 5M STANDARD                00011    000000000010000000000000000000000035650001500000000003565000000004100000000                                                                                                    
D2965635LOCSET MORTICE FANCY 2L                 00011    000000000010000000000000000000000090000001500000000009000000000010350000000                                                                                                    
D2425846LOCSET CYLINDER FANCY SN/CP             00011    000000000010000000000000000000000130000001500000000013000000000014950000000                                                                                                    
D2532229SWITCH SOCKET SGL BI PVC                00011    000000000010000000000000000000000032900001500000000003290000000003784000000                                                                                                    
D2975531GLOBE LED A70 B22 REC 6W                00011    000000000030000000000000000000000039900001500000000011970000000013766000000                                                                                                    
D2781177SWITCH SOCKET DBL CRAB                  00011    000000000010000000000000000000000082580001500000000008258000000009497000000                                                                                                    
D2779568GLOBE LED A60 B22 11W                   00011    000000000000000000000002000000000019410001500000000003882000000004464000000                                                                                                    
D2546765SWITCH GLOBE DAYLIGHT 15A               00011    000000000000000000000001000000000108630001500000000010863000000012492000000                                                                                                    
