HSPAR SOUTH RAND               6001008999932600493001213721995BUILD IT DAKOTA BETHLEHEM     05792120092558Short Delivery                N57921          000000062393000000071752000000009359SHORT SUPPLIED 17/9/2020 INV 533121 PUB52818. TO BE CREDITED                                        0003
D2425900LOCK SET MORTICE VICTORIAN 6'           00016    000000000000000000000004000000000094900001500000000037960000000043654000000                                                                                                    
D2546806PVC 90' BEND 20MM /5                    000520MM 000000000000000000000003000000000021110001500000000006333000000007283000000                                                                                                    
D2425532PAD BOLT 200MM GALV                     0001200MM000000000000000000000005000000000036200001500000000018100000000020815000000                                                                                                    
